:1000000024C048C08BC146C045C03EC143C042C0A9
:1000100041C040C03FC03EC03DC076C2C2C1010227
:100020000000040000000000000000003800000094
:100030000000370002020202020202020202010272
:100040000408102020041008740311241FBECFE5FB
:10005000D2E0DEBFCDBF10E0A0E6B0E0E4E0F7E024
:1000600002C005900D92AA37B107D9F720E0AAE7A0
:10007000B0E001C01D92AA3DB207E1F710E0C5E271
:10008000D0E003C02197FE0135D3C432D107D1F7A8
:100090007DD236C3B5CF90E0FC01E25CFF4F2491E6
:1000A000FC01EC5CFF4F8491882399F090E0880F6D
:1000B000991FFC01E25DFF4FA591B491FC01E85D41
:1000C000FF4F859194918FB7F894EC91E22BEC93CC
:1000D0008FBF0895E091D200F091D300309709F0DE
:1000E00009940895E091D400F091D500309709F07B
:1000F0000994089590E0FC01E25EFF4F3491FC0109
:10010000E25CFF4F2491FC01EC5CFF4FE491EE2395
:1001100039F1332399F0323071F028F4313071F431
:100120008AB58F770AC0333011F0343039F48CB58A
:100130008F7D8CBD03C08AB58F7D8ABDF0E0EE0F48
:10014000FF1FE85DFF4FA591B4918FB7F894EC9134
:10015000611103C020952E2301C02E2B2C938FBF3D
:1001600008953FB7F8948091C3009091C400A09186
:10017000C500B091C60022B708B601FE05C02F3FEA
:1001800019F00196A11DB11D3FBFBA2FA92F982FBD
:100190008827820F911DA11DB11DBC01CD0146E034
:1001A000660F771F881F991F4A95D1F708958F9280
:1001B0009F92AF92BF92CF92DF92EF92FF926B012C
:1001C0007C01CFDF4B015C01C114D104E104F104D7
:1001D000E9F0C7DFDC01CB0188199909AA09BB093D
:1001E000883E9340A105B10578F321E0C21AD108F9
:1001F000E108F10888EE880E83E0981EA11CB11C6E
:10020000C114D104E104F10421F7DECFFF90EF9097
:10021000DF90CF90BF90AF909F908F900895809186
:10022000D9009091C7009923A9F09091CA008091BC
:10023000CB009817D1F38091CB008F5F8F718093A3
:10024000CB008091C70081508093C7008091CB0084
:1002500081E0E7CF8093D9000895E0E6F0E0919146
:100260008091C8008F5F8F714091C900841739F069
:10027000A82FB0E0A656BF4F9C938093C80080E0A3
:10028000E837F80761F708951F920F920FB60F92A3
:1002900011242F933F938F939F93AF93BF9380919C
:1002A000BF009091C000A091C100B091C2003091F8
:1002B000BE0020E3230F2D3720F44096A11DB11D71
:1002C00005C023EB230F4196A11DB11D2093BE0055
:1002D0008093BF009093C000A093C100B093C20070
:1002E0008091C3009091C400A091C500B091C60058
:1002F0000196A11DB11D8093C3009093C400A093EB
:10030000C500B093C600BF91AF919F918F913F916F
:100310002F910F900FBE0F901F9018951F920F9264
:100320000FB60F9211242F933F934F935F936F93C8
:100330007F938F939F93AF93BF93EF93FF93B09B64
:100340001FC0B29B1DC082E08A95F1F70000B09BF0
:1003500017C0B29B15C01092BD008091BC008823CD
:1003600071F08091C700882341F08091C700E0912F
:10037000CE00F091CF0090E009951092BC00759AE4
:10038000FF91EF91BF91AF919F918F917F916F916D
:100390005F914F913F912F910F900FBE0F901F9043
:1003A00018951F920F920FB60F9211242F933F931F
:1003B0004F935F936F937F938F939F93AF93BF936D
:1003C000EF93FF938091BA009091BB00823091052A
:1003D00009F459C02CF40097F1F00197C1F183C0E2
:1003E0008430910509F458C034F1059709F07BC0B9
:1003F0008091CA008F5F8F718093CA00E091CA001C
:100400008FB1F0E0E658FF4F80838091C7008F5F87
:100410008093C7004CC08FB1882309F452C08FB1BC
:1004200090E0959587952091CC0030E08217930756
:1004300009F055C046C08FB1882349F088EA8DB9CC
:1004400080E78EB91092C9001092C8004CC09091FC
:10045000C8008091C900981709F441C08091C90073
:100460008F5F8F718093C900E091C900F0E0E6567C
:10047000FF4F80818FB982E090E09093BB00809322
:10048000BA00B89A2EC083E090E09093BB008093AE
:10049000BA00B8981FB813C085E090E09093BB00F5
:1004A0008093BA00B8981DC081E08093BC0084E0BE
:1004B00090E09093BB008093BA001FB8B89A8EE783
:1004C00011C0789BF1CF81E090E09093BB008093C6
:1004D000BA00E091D000F091D1000995EECF88EA02
:1004E0008DB980E78EB9FF91EF91BF91AF919F9148
:1004F0008F917F916F915F914F913F912F910F90CD
:100500000FBE0F901F9018951F920F920FB60F926B
:1005100011242F933F934F935F936F937F938F9308
:100520009F93AF93BF93EF93FF9381E08093BD00C0
:10053000B898B29B02C0B09BFCCFB09910C088EFB6
:100540008DB98091BC00882351F08091C700E09163
:10055000CE00F091CF0090E009951092BC0080EFA2
:100560008EB91092BB001092BA00FF91EF91BF912B
:10057000AF919F918F917F916F915F914F913F913B
:100580002F910F900FBE0F901F90189578948AB5F9
:1005900082608ABD8AB581608ABD83B7826083BF6D
:1005A00083B7816083BF89B7826089BF80B782606B
:1005B00080BF3298319A309A379A8CB580648CBD5E
:1005C000F89483E068DD84E066DD81E064DD10920C
:1005D000D60087E18093D8002AE630E03093D1003E
:1005E0002093D00022E730E03093CF002093CE005C
:1005F0001092CB001092CA001092C9001092C8004D
:100600001092C7001092CD008093CC008FEF8FB96D
:1006100087B3856087BBC29AC09AB89888EA8DB9BB
:1006200080EF8EB98BB780628BBF8AB780628ABF3A
:10063000A89A8DE291E09093D3008093D2008FE04E
:1006400091E09093D5008093D40000E010E078947E
:1006500061E083E04FDD61E084E04CDD68EE73E053
:1006600080E090E0A4DD60E083E044DD60E084E0D1
:1006700041DD68EE73E080E090E099DD61E081E0CB
:1006800039DD64EF71E080E090E091DD60E081E0D1
:1006900031DD64E670E080E090E089DD8091D90092
:1006A000811105C00115110591F2AADCD0CF10927D
:1006B000D900CBE0D0E061E083E01CDD61E084E0C4
:1006C00019DD68EC70E080E090E071DD60E083E0CF
:1006D00011DD60E084E00EDD68EC70E080E090E029
:1006E00066DD219741F7DECFE6EDF0E01082118262
:1006F00012820895EE0FFF1F0590F491E02D0994EA
:04070000F894FFCF9B
:100704005961206261646765E28099732077696347
:0A0714006B65642070697373610067
:00000001FF
