:1000000025C049C0A5C247C046C058C244C043C06D
:1000100042C041C040C03FC03EC090C3DCC20102EC
:100020000000040000000000000000003800000094
:100030000000370002020202020202020202010272
:100040000408102020041008E003C30511241FBE7B
:10005000CFE5D2E0DEBFCDBF11E0A0E6B0E0EEEE2E
:10006000FBE002C005900D92A832B107D9F721E05C
:10007000A8E2B1E001C01D92AD3BB207E1F710E08C
:10008000C5E2D0E003C02197FE019BD5C432D10761
:10009000D1F7D9D3A0C5B4CF90918F019F5F9F7145
:1000A00020918E01921749F0E92FF0E0E259FE4FBE
:1000B000808390938F0181E0089580E0089590E01F
:1000C000FC01E25CFF4F2491FC01EC5CFF4F84914A
:1000D000882399F090E0880F991FFC01E25DFF4FA3
:1000E000A591B491FC01E85DFF4F859194918FB784
:1000F000F894EC91E22BEC938FBF0895E0915F01AF
:10010000F0916001309709F009940895E091610140
:10011000F0916201309709F009940895CF92DF922F
:10012000EF92FF920F931F93CF93DF936C017A01AD
:100130008B01C0E0D0E0CE15DF0589F0D8016D91CC
:100140008D01D601ED91FC910190F081E02DC60169
:100150000995892B11F47E0102C02196ECCFC701CD
:10016000DF91CF911F910F91FF90EF90DF90CF9093
:10017000089590E0FC01E25EFF4F3491FC01E25CE7
:10018000FF4F2491FC01EC5CFF4FE491EE2339F129
:10019000332399F0323071F028F4313071F48AB59C
:1001A0008F770AC0333011F0343039F48CB58F7D3D
:1001B0008CBD03C08AB58F7D8ABDF0E0EE0FFF1FB6
:1001C000E85DFF4FA591B4918FB7F894EC91611160
:1001D00003C020952E2301C02E2B2C938FBF089592
:1001E0003FB7F8948091520190915301A09154012E
:1001F000B091550122B708B601FE05C02F3F19F096
:100200000196A11DB11D3FBFBA2FA92F982F882796
:10021000820F911DA11DB11DBC01CD0146E0660FED
:10022000771F881F991F4A95D1F708958F929F9243
:10023000AF92BF92CF92DF92EF92FF926B017C015F
:10024000CFDF4B015C01C114D104E104F104E9F0FA
:10025000C7DFDC01CB0188199909AA09BB09883ECF
:100260009340A105B10578F321E0C21AD108E10855
:10027000F10888EE880E83E0981EA11CB11CC11401
:10028000D104E104F10421F7DECFFF90EF90DF907D
:10029000CF90BF90AF909F908F9008958FEF9FEF7A
:1002A000089580E090E008958FEF9FEF08950895FE
:1002B0001F93CF93DF93DC0152962D913C9153977E
:1002C0002115310539F481E090E013969C938E93CB
:1002D00012973DC01D96ED91FC911E971C969C9126
:1002E0001C97892F80951FB754964C91549741FBCA
:1002F000772770F941FD6095F8944081772311F0DC
:10030000492B01C048234083E9012197F1F748E0D8
:10031000508160FF02C0592B01C058235083E9016E
:100320002197F1F76695415099F7772321F0908155
:100330008923808303C08081982B90831FBF5296AE
:100340008D919C9153970197F1F721E030E0C9011D
:10035000DF91CF911F9108951F93CF93DF93EC010D
:10036000162F6C896695617081E06827812F01DF07
:10037000812FA5DE612F70E0FB01E25CFF4FE4916D
:10038000EC87FB01EC5CFF4FE491F0E0EE0FFF1F08
:10039000E85DFF4F859194919E878D87DF91CF9186
:1003A0001F910895089580E090E008950F931F93A2
:1003B000CF93DF9380916301811121C08091600010
:1003C000882389F010926000C1E6D0E009ED10E0CA
:1003D0008991F80191918F0189275EDEF0E0C9379C
:1003E000DF07B1F71AC081E080936000CBE8D0E06E
:1003F000899152DE80E0CD39D807D1F70EC0C9E728
:10040000D0E009ED10E08991F80191918F018927E1
:1004100043DEF0E0CB38DF07B1F7DF91CF911F91DA
:100420000F91089586E0E4E6F1E0DF011D928A95E0
:10043000E9F71092280180E090915601992301F18B
:10044000A82FB0E020915701909158012917D1F3BE
:10045000909158019F5F9F71909358019091560120
:10046000915090935601E0915801AC59BE4FF0E085
:10047000E75DFE4F90819C938F5F8630E9F6DBCF7E
:100480008093280181E080936C0180936B01089533
:100490009ED36115710579F0FB0101900020E9F709
:1004A0003197AF01461B570BDC01ED91FC910280A7
:1004B000F381E02D099480E090E008951F920F925F
:1004C0000FB60F9211242F933F938F939F93AF9367
:1004D000BF9380914E0190914F01A0915001B09136
:1004E000510130914D0120E3230F2D3720F4409628
:1004F000A11DB11D05C023EB230F4196A11DB11D08
:1005000020934D0180934E0190934F01A093500191
:10051000B09351018091520190915301A0915401E7
:10052000B09155010196A11DB11D80935201909388
:100530005301A0935401B0935501BF91AF919F9186
:100540008F913F912F910F900FBE0F901F90189594
:100550001F920F920FB60F9211242F933F934F9338
:100560005F936F937F938F939F93AF93BF93EF931B
:10057000FF93B09B1FC0B29B1DC082E08A95F1F72C
:100580000000B09B17C0B29B15C010924C01809127
:100590004B01882371F080915601882341F08091AE
:1005A0005601E0915B01F0915C0190E00995109299
:1005B0004B01759AFF91EF91BF91AF919F918F91F0
:1005C0007F916F915F914F913F912F910F900FBE4F
:1005D0000F901F9018951F920F920FB60F92112433
:1005E0002F933F934F935F936F937F938F939F933B
:1005F000AF93BF93EF93FF938091490190914A018C
:100600008230910509F459C02CF40097F1F001975C
:10061000C1F183C08430910509F458C034F10597C5
:1006200009F07BC0809157018F5F8F7180935701D4
:10063000E09157018FB1F0E0E75DFE4F808380913C
:1006400056018F5F809356014CC08FB1882309F407
:1006500052C08FB190E0959587952091590130E077
:100660008217930709F055C046C08FB1882349F01F
:1006700088EA8DB980E78EB910928E0110928F01B1
:100680004CC090918F0180918E01981709F441C060
:1006900080918E018F5F8F7180938E01E0918E012A
:1006A000F0E0E259FE4F80818FB982E090E09093B4
:1006B0004A0180934901B89A2EC083E090E090935C
:1006C0004A0180934901B8981FB813C085E090E0B3
:1006D00090934A0180934901B8981DC081E08093AE
:1006E0004B0184E090E090934A01809349011FB848
:1006F000B89A8EE711C0789BF1CF81E090E090939B
:100700004A0180934901E0915D01F0915E010995F4
:10071000EECF88EA8DB980E78EB9FF91EF91BF9156
:10072000AF919F918F917F916F915F914F913F9189
:100730002F910F900FBE0F901F9018951F920F9240
:100740000FB60F9211242F933F934F935F936F93A4
:100750007F938F939F93AF93BF93EF93FF9381E02A
:1007600080934C01B898B29B02C0B09BFCCFB0996B
:1007700010C088EF8DB980914B01882351F0809192
:100780005601E0915B01F0915C0190E009951092B7
:100790004B0180EF8EB910924A0110924901FF91EE
:1007A000EF91BF91AF919F918F917F916F915F91E9
:1007B0004F913F912F910F900FBE0F901F90189562
:1007C000CF92DF92EF92FF92CF93DF93E0E9F1E0D7
:1007D000108211821282E8EAF1E01382128288EE1E
:1007E000C82E83E0D82EE12CF12CC482D582E6827B
:1007F000F782C9E1D1E0D183C083138A128AECEB7E
:10080000F1E080818D7F808364E088EA91E0A4DD5F
:10081000E3E9F1E013821282C482D582E682F78294
:10082000D183C083138A128AE7EAF1E080818D7F49
:10083000808363E083E991E0DF91CF91FF90EF90B7
:10084000DF90CF9089CDCF93DF93CDB7DEB7AD9753
:100850000FB6F894DEBF0FBECDBF78948AB5826024
:100860008ABD8AB581608ABD83B7826083BF83B742
:10087000816083BF89B7826089BF80B7826080BF93
:100880003298319A309A379A8CB580648CBDF8943E
:1008900083E015DC84E013DC1092900187E1809303
:1008A00092012EE730E030935E0120935D0126E84F
:1008B00030E030935C0120935B011092580110925C
:1008C000570110928E0110928F01109256011092D2
:1008D0005A01809359018FEF8FB987B3856087BB29
:1008E000C29AC09AB89888EA8DB980EF8EB98BB752
:1008F00080628BBF8AB780628ABFA89A86ED91E03A
:100900009093600180935F0182E192E09093620195
:100910008093610180E190E09093BB018093BA01E4
:100920009093A6018093A50181E0C9DB8E010F5F42
:100930001F4F7E012BE1E20EF11C8FEB90E05AE19C
:10094000B52EB80E86EA90E069E1D62ED80E8BEF70
:1009500090E04AE1C42EC80E789480916D0161E068
:10096000882381F081E005DC64EF71E080E090E0B5
:100970005DDC60E081E0FDDB64E670E080E090E05B
:1009800055DC02C081E0F5DB80916C01811117C05C
:1009900080916B01882309F4ABC010926B01E4E6EF
:1009A000F1E080916D0190E065E070E0EDD084565B
:1009B0009F4F29ED822E20E0922EB40120C010928C
:1009C0006C013AE0832E912C61E083E0D2DB61E0A0
:1009D00084E0CFDB68EC70E080E090E027DC60E052
:1009E00083E0C7DB60E084E0C4DB68EC70E080E0BB
:1009F00090E01CDC81E0881A910831F7C9CF419161
:100A0000DC01AD90CD01DB012D91BD0150E0022E46
:100A1000000C330B2A254217530719F0109263017B
:100A200067C0B1E0E936FB0751F781E080936301CD
:100A30008AE1F80111928A95E9F783E1D7011D92C5
:100A40008A95E9F7980149ED50E0EFEBF0E08191EC
:100A5000DA019D91AD018927D9018D939D01BE12C7
:100A6000F6CF9701E6EAF0E08191D4019D914D0126
:100A70008927D9018D939D01DE12F6CF80E190E0A8
:100A80009093BB018093BA019093A6018093A50136
:100A9000F894A12C85E0982E8A2D692D86D061E0EE
:100AA00083E0911106C065DB61E084E062DBB801A0
:100AB00005C05FDB61E084E05CDBB70188EA91E0C0
:100AC000E8DC61E084E055DB68EE73E080E090E014
:100AD000ADDBA39460E083E04CDB60E084E049DBC5
:100AE00068EE73E080E090E0A1DBBCE3AB12D4CF12
:100AF0008AE1F80111928A95E9F729ED30E0A80121
:100B0000EBEFF0E08191D9019D919D018927DA01F8
:100B10008D93AD01CE12F6CF61E083E02ADB61E078
:100B200084E027DBB80188EA91E0B3DC61E084E08F
:100B300020DB68EE73E080E090E078DB60E083E04B
:100B400018DB60E084E015DB60ED77E080E090E0AA
:100B50006DDB80916A018F5F80936A01843160F060
:100B600080916D01811104C081E080936D0102C00C
:100B700010926D0110926A0180E090E0892B09F4D7
:100B8000EBCE3EDAE4CE08950024552704C0080ECB
:100B9000591F880F991F009729F076956795B8F32C
:100BA0007105B9F7802D952F0895991B79E004C040
:100BB000991F961708F0961B881F7A95C9F780959C
:100BC0000895EE0FFF1F0590F491E02D099481E048
:100BD00090E0F89400C010E0C5E2D0E003C0FE0150
:0E0BE000F0DF2196C632D107D1F7F894FFCF8F
:100BEE0001170843074110151C006D1B45050C43EA
:100BFE000216444E1F1D1B1A0F170616455254059A
:100C0E0010431F0D0152164D08015479626278206F
:100C1E0076616762207A6C20726C72662D0506040E
:100C2E00522D050C10446E491A0C49021B1052131A
:100C3E001D071A0C52001F49064F1C01194E472161
:100C4E0007151C49100601470E0506030D420F1825
:100C5E00531C1F11041E1B0D414E696365207472D7
:100C6E0079207468657265206973206E6F74686987
:100C7E006E672068657265203A2900190102110716
:100C8E0007520D481148121B064B0C1700190A1576
:100C9E001C010B151F0000000058018E00D30157D8
:080CAE0001510154014E010047
:00000001FF
